:020000040000FA
:10000000700200200D03000015030000170300001C
:10001000190300001B0300001D0300000000000086
:100020000000000000000000000000001F030000AE
:10003000210300000000000023030000250A000047
:1000400027030000290300002B0300002D030000FC
:100050002F030000310300003303000035030000CC
:1000600037030000390300003B0300003D0300009C
:100070003F0300004103000043030000450300006C
:1000800047030000490300004B0300004D0300003C
:100090004F0300005103000053030000550300000C
:1000A00057030000590300005B0300005D030000DC
:1000B0005F030000610300006303000065030000AC
:1000C00067030000690300006B0300006D0300007C
:1000D0006F0300007103000073030000750300004C
:1000E0007703000079030000000000007B0300009C
:1000F0007D0300007F0300008103000083030000F4
:100100008503000087030000890300008B030000C3
:1001100000000000000000008D0300008F030000BD
:100120009103000093030000950300009703000073
:10013000990300009B0300009D0300009F03000043
:1001400000000000000000000000000000000000AF
:10015000A1030000A3030000A5030000A703000003
:10016000000000000000000000000000000000008F
:10017000000000000000000000000000000000007F
:10018000000000000000000000000000000000006F
:10019000000000000000000000000000000000005F
:1001A000000000000000000000000000000000004F
:1001B000A9030000AB030000AD030000AF03000083
:1001C000B1030000B3030000B5030000B703000053
:1001D000B9030000BB030000BD030000BF03000023
:1001E000C1030000C3030000C503000000000000BD
:1001F00000000000C7030000C9030000CB0300009B
:10020000CD030000CF03000000000000000000004C
:10021000D1030000D3030000D5030000D703000082
:10022000D9030000DB030000DD030000DF03000052
:10023000E1030000E3030000E5030000E703000022
:10024000E9030000EB030000ED030000EF030000F2
:10025000F1030000F3030000F5030000F7030000C2
:10026000F9030000FB030000FD03000000F002F8AA
:1002700000F03CF80AA090E8000C82448344AAF104
:100280000107DA4501D100F031F8AFF2090EBAE802
:100290000F0013F0010F18BFFB1A43F001031847BA
:1002A00084080000A4080000103A24BF78C878C170
:1002B000FAD8520724BF30C830C144BF04680C606C
:1002C000704700000023002400250026103A28BFB4
:1002D00078C1FBD8520728BF30C148BF0B607047B8
:1002E0001FB500F011FC1FBD10B510BD00F09BF84C
:1002F0001146FFF7F5FF00F0A7FB00F0B9F803B4D3
:10030000FFF7F2FF03BC00F0C1F800003F48804750
:100310003F480047FEE7FEE7FEE7FEE7FEE7FEE7B1
:10032000FEE7FEE7FEE7FEE7FEE7FEE7FEE7FEE7A5
:10033000FEE7FEE7FEE7FEE7FEE7FEE7FEE7FEE795
:10034000FEE7FEE7FEE7FEE7FEE7FEE7FEE7FEE785
:10035000FEE7FEE7FEE7FEE7FEE7FEE7FEE7FEE775
:10036000FEE7FEE7FEE7FEE7FEE7FEE7FEE7FEE765
:10037000FEE7FEE7FEE7FEE7FEE7FEE7FEE7FEE755
:10038000FEE7FEE7FEE7FEE7FEE7FEE7FEE7FEE745
:10039000FEE7FEE7FEE7FEE7FEE7FEE7FEE7FEE735
:1003A000FEE7FEE7FEE7FEE7FEE7FEE7FEE7FEE725
:1003B000FEE7FEE7FEE7FEE7FEE7FEE7FEE7FEE715
:1003C000FEE7FEE7FEE7FEE7FEE7FEE7FEE7FEE705
:1003D000FEE7FEE7FEE7FEE7FEE7FEE7FEE7FEE7F5
:1003E000FEE7FEE7FEE7FEE7FEE7FEE7FEE7FEE7E5
:1003F000FEE7FEE7FEE7FEE7FEE7FEE7FEE70000BA
:1004000004480549034A054B70470000350A0000BF
:100410006D020000700000207002002070000020BB
:10042000704770477047754600F02CF8AE460500DF
:100430006946534620F00700854618B020B5FFF7FF
:10044000DFFFBDE820404FF000064FF000074FF0FF
:1004500000084FF0000BAC46ACE8C009ACE8C0099E
:10046000ACE8C009ACE8C00921F007018D4670472F
:1004700010B50446AFF300802046BDE81040FFF7FA
:100480003EBF0000004870470800002001491820C6
:10049000ABBEFEE7260002007047000080B53C209E
:1004A00000F042F801281BD1FFE740F26A00C2F2D7
:1004B0000000018801310180008840F20201C2F28F
:1004C0000001098888420AD1FFE740F26A00C2F2BF
:1004D0000000002101803C2000F084F9FFE721E0CA
:1004E0003C2000F021F8E0B9FFE740F26800C2F2DA
:1004F0000000018801310180008840F20001C2F251
:100500000001098888420BD1FFE740F26801C2F27E
:100510000001002008803C20012100F063F9FFE782
:10052000FFE7FFE780BD000082B08DF807009DF86F
:1005300007004CF6CD41CCF6CC41A0FB0132D208ED
:1005400002EB8202A0EB42008DF806009DF8070046
:10055000A0FB0110C0088DF8050000208DF80400F4
:100560009DF80500013801460091052853D80099EF
:10057000DFE801F003101D2A374444F2FC30C4F2D6
:10058000000000689DF80610C84000F001008DF8DA
:10059000040041E045F2FC30C4F2000000689DF820
:1005A0000610C84000F001008DF8040034E046F267
:1005B000FC30C4F2000000689DF80610C84000F04E
:1005C00001008DF8040027E047F2FC30C4F200007F
:1005D00000689DF80610C84000F001008DF8040086
:1005E0001AE044F2FC30C4F2020000689DF80610E4
:1005F000C84000F001008DF804000DE045F2FC3029
:10060000C4F2020000689DF80610C84000F0010026
:100610008DF8040000E0FFE79DF8040002B0704789
:1006200084B08DF80F008DF80E109DF80F004CF679
:10063000CD41CCF6CC41A0FB0132D20802EB8202C4
:10064000A0EB42008DF80D009DF80F00A0FB0110FB
:10065000C0088DF80C009DF80E000146029120B1F3
:10066000FFE7029801285DD0B9E09DF80C00013841
:1006700001460191052853D80199DFE801F00310E4
:100680001D2A37449DF80D10012000FA01F244F2B2
:100690000041C4F2000108689043086041E09DF801
:1006A0000D10012000FA01F245F20041C4F20001F0
:1006B00008689043086034E09DF80D10012000FAAE
:1006C00001F246F20041C4F200010868904308605C
:1006D00027E09DF80D10012000FA01F247F20041D9
:1006E000C4F200010868904308601AE09DF80D10FC
:1006F000012000FA01F244F20041C4F2020108684C
:10070000904308600DE09DF80D10012000FA01F201
:1007100045F20041C4F2020108689043086000E01D
:10072000FFE75DE09DF80C000138014600910528C7
:1007300053D80099DFE801F003101D2A37449DF8D3
:100740000D10012000FA01F244F20041C4F2000150
:1007500008681043086041E09DF80D10012000FA80
:1007600001F245F20041C4F200010868104308603C
:1007700034E09DF80D10012000FA01F246F200412C
:10078000C4F2000108681043086027E09DF80D10CE
:10079000012000FA01F247F20041C4F200010868AA
:1007A000104308601AE09DF80D10012000FA01F2D4
:1007B00044F20041C4F202010868104308600DE0F1
:1007C0009DF80D10012000FA01F245F20041C4F23B
:1007D000020108681043086000E0FFE700E0FFE75F
:1007E00004B0704784B08DF80F008DF80E109DF89E
:1007F0000F004CF6CD41CCF6CC41A0FB0132D20823
:1008000002EB8202A0EB42008DF80D009DF80F0074
:10081000A0FB0110C0088DF80C009DF80E000146E9
:10082000029120B1FFE7029801285DD0B9E09DF860
:100830000C00013801460191052853D80199DFE8E1
:1008400001F003101D2A37449DF80D10012000FA15
:1008500001F244F2FC31C4F20001086890430860E0
:1008600041E09DF80D10012000FA01F245F2FC3143
:10087000C4F2000108689043086034E09DF80D1050
:10088000012000FA01F246F2FC31C4F200010868CE
:100890009043086027E09DF80D10012000FA01F256
:1008A00047F2FC31C4F200010868904308601AE086
:1008B0009DF80D10012000FA01F244F2FC31C4F25F
:1008C00002010868904308600DE09DF80D100120BA
:1008D00000FA01F245F2FC31C4F2020108689043CB
:1008E000086000E0FFE75DE09DF80C00013801467C
:1008F0000091052853D80099DFE801F003101D2A64
:1009000037449DF80D10012000FA01F244F2FC3149
:10091000C4F2000108681043086041E09DF80D1022
:10092000012000FA01F245F2FC31C4F2000108682E
:100930001043086034E09DF80D10012000FA01F228
:1009400046F2FC31C4F2000108681043086027E059
:100950009DF80D10012000FA01F247F2FC31C4F2BB
:1009600000010868104308601AE09DF80D1001208E
:1009700000FA01F244F2FC31C4F2020108681043AB
:1009800008600DE09DF80D10012000FA01F245F21B
:10099000FC31C4F2020108681043086000E0FFE780
:1009A00000E0FFE704B0704781B00090009840F28B
:1009B0006C01C2F20001086001B0704783B0029080
:1009C00062B60020019002984FF47A71484300EE1D
:1009D000100AB8EE400A9DED011A80EE010A8DED75
:1009E000000A9DED000AB7EE001A30EE010ABCEED7
:1009F000C00A4EF21400CEF2000080ED000A4EF262
:100A00001001CEF20001086840F004000860086898
:100A100040F002000860086840F00100086003B080
:100A20007047000080B540F26C00C2F20000006820
:100A3000804780BD4EF68851CEF20001086840F430
:100A4000700008607047000080B584B000200190FD
:100A500003904FF47A70FFF7B1FF40F29D40C0F26F
:100A60000000FFF7A1FF0198ADF80A00ADF80800FB
:100A70004EF20861C4F20F01086840F021000860DE
:100A80003C200121FFF7CCFD01990A20FFF7C8FDAA
:100A900001990B20FFF7C4FD01990C20FFF7C0FD61
:100AA000FFE70A20FFF740FD012806D1FFE7BDF868
:100AB0000A000130ADF80A00FFE70B20FFF734FD14
:100AC000012806D1FFE7BDF808000130ADF80800A5
:100AD000FFE70C20FFF728FD012814D1FFE7BDF840
:100AE0000A0040F20201C2F200010880BDF80800CD
:100AF00040F20001C2F2000108800020ADF80A00B7
:100B0000ADF80800FFE7CCE7F1EE100A4FF6FF71F1
:100B1000C0F2C03120EA010040F04070E1EE100A5E
:100B200070470000440B000000000020040000009B
:100B3000A8020000480B0000080000206802000026
:080B4000C402000001000100E5
:040000050000030DE7
:00000001FF
